:1000000014C02CC02BC02AC029C028C027C027C0BC
:1000100025C024C023C022C021C020C01FC01EC0D4
:100020001DC01CC01BC01AC019C011241FBECFEDBB
:10003000CDBF10E0A4E6B0E001C01D92AC38B1071E
:10004000E1F710E0A0E6B0E0E6E1F7E002C00590DD
:100050000D92A436B107D9F7BAD05BC3D1CF1F92A6
:100060000F920FB60F9211248F939F93EF93FF93EC
:100070009BB18CB19C7109F052C0E0917000F0E02E
:10008000EC59FF4F8083909170009F5F90937000B8
:100090008F3521F481E0809372003AC08C3429F4CA
:1000A00088B394E0892788BB2EC0823539F48091CB
:1000B000870091E089278093870025C0813489F4E7
:1000C0008091790090917A009093860080938500CA
:1000D000809183009091840090938B0080938A009C
:1000E00012C0823481F48091790090917A009093CB
:1000F0007E0080937D008091830090918400909396
:100100008200809381008091700081508093700004
:10011000809170008C3020F01092700001C01BB8EC
:10012000FF91EF919F918F910F900FBE0F901F90B5
:1001300018952AB53BB58091880090918900821767
:10014000930720F48AB59BB501970CC02AB53BB53F
:1001500080918800909189002817390730F48AB57A
:100160009BB501969BBD8ABD02C01092730028B555
:1001700039B580917F00909180008217930720F419
:1001800088B599B501970CC028B539B580917F0025
:10019000909180002817390730F488B599B50196F9
:1001A00099BD88BD02C0109274008FEB9DE5019748
:1001B000F1F700C00000089507C0EFECF7E03197B9
:1001C000F1F700C0000001970097B9F70895AF92CA
:1001D000BF92CF92DF92EF92FF920F931F93CF9334
:1001E000DF9387B38C6187BB80E29EE495BD84BDBD
:1001F0008FB5826A8FBD8EB58A618EBD8CED95E01C
:100200009BBD8ABD99BD88BD12B823E329B91BB82F
:100210002AB120692AB923B1266023B97894C29AF9
:1002200090938600809385008EE299E090937E0003
:1002300080937D002CEB32E030938B0020938A007A
:10024000909382008093810081E080938700DD2479
:10025000D39404E610E02CE0C22E98EEE92E93E051
:10026000F92E8CEBA82E82E0B82E809172008823A4
:1002700009F447C110927A0010927900109284001C
:1002800010928300F894D092710024C0809179007C
:1002900090917A006AE070E03AD190937A0080936E
:1002A00079008091790090917A00E0917100C09777
:1002B000F0E0EC59FF4F2081332727FD3095820F66
:1002C000931F90937A0080937900809171008F5FE3
:1002D00080937100E0917100F0E0EC59FF4F808154
:1002E0008935A1F61FC080918300909184006AE057
:1002F00070E00DD1909384008093830080918300FF
:1003000090918400E0917100C097F0E0EC59FF4FAC
:100310002081332727FD3095820F931F909384000F
:1003200080938300809171008F5F80937100E091D2
:100330007100F0E0EC59FF4F80818F35A1F61092EB
:100340007000F8012C2D11922A95E9F71092720095
:1003500078948091790090917A00E2E08A389E0743
:1003600070F08091790090917A00F9E081369F07D2
:1003700030F48091790090917A009BBD8ABD809184
:1003800083009091840022E08A38920708F4B9C073
:100390008091830090918400E9E081369E0708F007
:1003A000B0C0809183009091840099BD88BDA9C0A0
:1003B0008CB59DB516D1C0918500D09186000DD128
:1003C00060917D0070917E002091850030918600C3
:1003D000621B730BAED08C0F9D1F9093890080938E
:1003E0008800C0918A00D0918B00F7D06091810085
:1003F0007091820020918A0030918B00621B730BF8
:1004000098D08C0F9D1F9093800080937F002AB519
:100410003BB580918800909189002817390738F002
:100420008AB59BB5209188003091890006C08091E3
:100430008800909189002AB53BB5821B930B90935D
:1004400078008093770028B539B580917F0090912E
:1004500080002817390738F088B599B520917F00BA
:100460003091800006C080917F009091800028B577
:1004700039B5821B930B90937C0080937B00809115
:100480007700909178008338910538F480917B0053
:1004900090917C008338910598F0F0927600E0927C
:1004A0007500D0927300D092740001C042DE80913A
:1004B00073008823A9F0809174008823B9F710C0D5
:1004C000B0927600A092750080918800909189008A
:1004D0009BBD8ABD80917F009091800099BD88BDB1
:1004E0007CD0609175007091760023D08C509E4F27
:1004F00090937600809375008091750090917600BE
:100500005BDE80918700882309F052CFAECE55275D
:10051000002480FF02C0060E571F660F771F61156B
:10052000710521F096958795009799F7952F802D65
:100530000895AA1BBB1B51E107C0AA1FBB1FA6172A
:10054000B70710F0A61BB70B881F991F5A95A9F77C
:1005500080959095BC01CD010895A0E0B0E0E2EB5C
:10056000F2E086C0EC01688179818A819B81611506
:1005700071058105910521F464E279ED8BE597E041
:100580002DE133EF41E050E050D079018A0127EAB4
:1005900031E440E050E030D05B016C01C801B701AC
:1005A0002CEE34EF4FEF5FEF27D09B01AC012A0D0B
:1005B0003B1D4C1D5D1D57FF04C021503040404085
:1005C0005048288339834A835B833F77C901CDB77D
:1005D000DEB7EAE069C0C1DF089580E690E0BDDFE4
:1005E0000895A0E0B0E08093600090936100A09334
:1005F0006200B09363000895FF27EE27BB27AA2768
:1006000060FF04C0A20FB31FE41FF51F220F331FAA
:10061000441F551F969587957795679589F700979D
:10062000760771F7CF01BD01089597FB092E0526C6
:100630000ED057FD04D04BD00AD0001C38F4509592
:100640004095309521953F4F4F4F5F4F0895F6F7F6
:1006500090958095709561957F4F8F4F9F4F08952E
:100660002F923F924F925F926F927F928F929F92C2
:10067000AF92BF92CF92DF92EF92FF920F931F93B0
:10068000CF93DF93CDB7DEB7CA1BDB0B0FB6F89461
:10069000DEBF0FBECDBF09942A88398848885F84A1
:1006A0006E847D848C849B84AA84B984C884DF8012
:1006B000EE80FD800C811B81AA81B981CE0FD11DF6
:1006C0000FB6F894DEBF0FBECDBFED010895A1E2D5
:1006D0001A2EAA1BBB1BFD010DC0AA1FBB1FEE1FBC
:1006E000FF1FA217B307E407F50720F0A21BB30B07
:1006F000E40BF50B661F771F881F991F1A9469F783
:1007000060957095809590959B01AC01BD01CF01DE
:060710000895F894FFCFEC
:0407160001000000DE
:00000001FF
